{"abi":[{"type":"constructor","inputs":[{"name":"_token","type":"address","internalType":"address"}],"stateMutability":"nonpayable"},{"type":"function","name":"BASIS_POINTS_DENOMINATOR","inputs":[],"outputs":[{"name":"","type":"uint256","internalType":"uint256"}],"stateMutability":"view"},{"type":"function","name":"DEFAULT_ADMIN_ROLE","inputs":[],"outputs":[{"name":"","type":"bytes32","internalType":"bytes32"}],"stateMutability":"view"},{"type":"function","name":"MAX_HOLDING_BASIS_POINTS","inputs":[],"outputs":[{"name":"","type":"uint256","internalType":"uint256"}],"stateMutability":"view"},{"type":"function","name":"SERVICE_PROVIDER_ROLE","inputs":[],"outputs":[{"name":"","type":"bytes32","internalType":"bytes32"}],"stateMutability":"view"},{"type":"function","name":"blacklistInvestor","inputs":[{"name":"investor","type":"address","internalType":"address"}],"outputs":[],"stateMutability":"nonpayable"},{"type":"function","name":"getAllWhitelistedInvestors","inputs":[],"outputs":[{"name":"","type":"address[]","internalType":"address[]"}],"stateMutability":"view"},{"type":"function","name":"getMaxHolding","inputs":[],"outputs":[{"name":"","type":"uint256","internalType":"uint256"}],"stateMutability":"view"},{"type":"function","name":"getRoleAdmin","inputs":[{"name":"role","type":"bytes32","internalType":"bytes32"}],"outputs":[{"name":"","type":"bytes32","internalType":"bytes32"}],"stateMutability":"view"},{"type":"function","name":"getWhitelistedInvestorsCount","inputs":[],"outputs":[{"name":"","type":"uint256","internalType":"uint256"}],"stateMutability":"view"},{"type":"function","name":"grantRole","inputs":[{"name":"role","type":"bytes32","internalType":"bytes32"},{"name":"account","type":"address","internalType":"address"}],"outputs":[],"stateMutability":"nonpayable"},{"type":"function","name":"hasRole","inputs":[{"name":"role","type":"bytes32","internalType":"bytes32"},{"name":"account","type":"address","internalType":"address"}],"outputs":[{"name":"","type":"bool","internalType":"bool"}],"stateMutability":"view"},{"type":"function","name":"investorIndex","inputs":[{"name":"","type":"address","internalType":"address"}],"outputs":[{"name":"","type":"uint256","internalType":"uint256"}],"stateMutability":"view"},{"type":"function","name":"isWhitelisted","inputs":[{"name":"","type":"address","internalType":"address"}],"outputs":[{"name":"","type":"bool","internalType":"bool"}],"stateMutability":"view"},{"type":"function","name":"notifyClawbackReceived","inputs":[{"name":"from","type":"address","internalType":"address"},{"name":"amount","type":"uint256","internalType":"uint256"}],"outputs":[],"stateMutability":"nonpayable"},{"type":"function","name":"renounceRole","inputs":[{"name":"role","type":"bytes32","internalType":"bytes32"},{"name":"callerConfirmation","type":"address","internalType":"address"}],"outputs":[],"stateMutability":"nonpayable"},{"type":"function","name":"revokeRole","inputs":[{"name":"role","type":"bytes32","internalType":"bytes32"},{"name":"account","type":"address","internalType":"address"}],"outputs":[],"stateMutability":"nonpayable"},{"type":"function","name":"setTokenAddress","inputs":[{"name":"newToken","type":"address","internalType":"address"}],"outputs":[],"stateMutability":"nonpayable"},{"type":"function","name":"supportsInterface","inputs":[{"name":"interfaceId","type":"bytes4","internalType":"bytes4"}],"outputs":[{"name":"","type":"bool","internalType":"bool"}],"stateMutability":"view"},{"type":"function","name":"token","inputs":[],"outputs":[{"name":"","type":"address","internalType":"contract IERC20"}],"stateMutability":"view"},{"type":"function","name":"validateTransfer","inputs":[{"name":"from","type":"address","internalType":"address"},{"name":"to","type":"address","internalType":"address"},{"name":"amount","type":"uint256","internalType":"uint256"},{"name":"recipientCurrentBalance","type":"uint256","internalType":"uint256"}],"outputs":[{"name":"","type":"bool","internalType":"bool"},{"name":"","type":"string","internalType":"string"}],"stateMutability":"view"},{"type":"function","name":"whitelistInvestor","inputs":[{"name":"investor","type":"address","internalType":"address"}],"outputs":[],"stateMutability":"nonpayable"},{"type":"function","name":"whitelistedInvestors","inputs":[{"name":"","type":"uint256","internalType":"uint256"}],"outputs":[{"name":"","type":"address","internalType":"address"}],"stateMutability":"view"},{"type":"event","name":"ClawbackReceived","inputs":[{"name":"from","type":"address","indexed":true,"internalType":"address"},{"name":"amount","type":"uint256","indexed":false,"internalType":"uint256"}],"anonymous":false},{"type":"event","name":"InvestorBlacklisted","inputs":[{"name":"investor","type":"address","indexed":true,"internalType":"address"}],"anonymous":false},{"type":"event","name":"InvestorWhitelisted","inputs":[{"name":"investor","type":"address","indexed":true,"internalType":"address"}],"anonymous":false},{"type":"event","name":"RoleAdminChanged","inputs":[{"name":"role","type":"bytes32","indexed":true,"internalType":"bytes32"},{"name":"previousAdminRole","type":"bytes32","indexed":true,"internalType":"bytes32"},{"name":"newAdminRole","type":"bytes32","indexed":true,"internalType":"bytes32"}],"anonymous":false},{"type":"event","name":"RoleGranted","inputs":[{"name":"role","type":"bytes32","indexed":true,"internalType":"bytes32"},{"name":"account","type":"address","indexed":true,"internalType":"address"},{"name":"sender","type":"address","indexed":true,"internalType":"address"}],"anonymous":false},{"type":"event","name":"RoleRevoked","inputs":[{"name":"role","type":"bytes32","indexed":true,"internalType":"bytes32"},{"name":"account","type":"address","indexed":true,"internalType":"address"},{"name":"sender","type":"address","indexed":true,"internalType":"address"}],"anonymous":false},{"type":"event","name":"TransferValidated","inputs":[{"name":"from","type":"address","indexed":true,"internalType":"address"},{"name":"to","type":"address","indexed":true,"internalType":"address"},{"name":"amount","type":"uint256","indexed":false,"internalType":"uint256"},{"name":"approved","type":"bool","indexed":false,"internalType":"bool"}],"anonymous":false},{"type":"error","name":"AccessControlBadConfirmation","inputs":[]},{"type":"error","name":"AccessControlUnauthorizedAccount","inputs":[{"name":"account","type":"address","internalType":"address"},{"name":"neededRole","type":"bytes32","internalType":"bytes32"}]},{"type":"error","name":"BlacklistRequiresZeroBalance","inputs":[{"name":"investor","type":"address","internalType":"address"},{"name":"balance","type":"uint256","internalType":"uint256"}]},{"type":"error","name":"ExceedsMaxHolding","inputs":[{"name":"currentBalance","type":"uint256","internalType":"uint256"},{"name":"maxHolding","type":"uint256","internalType":"uint256"}]},{"type":"error","name":"NotWhitelisted","inputs":[{"name":"investor","type":"address","internalType":"address"}]},{"type":"error","name":"Unauthorized","inputs":[]}],"bytecode":{"object":"0x608060405234801561000f575f5ffd5b50604051611dfc380380611dfc83398181016040528101906100319190610278565b8060015f6101000a81548173ffffffffffffffffffffffffffffffffffffffff021916908373ffffffffffffffffffffffffffffffffffffffff1602179055506100835f5f1b336100bb60201b60201c565b506100b47fd8c0b0264fb5d225f4ba2fb92454d9f4f912be4d27b355562e6ae90ce2f5e74b336100bb60201b60201c565b50506102a3565b5f6100cc83836101b060201b60201c565b6101a65760015f5f8581526020019081526020015f205f015f8473ffffffffffffffffffffffffffffffffffffffff1673ffffffffffffffffffffffffffffffffffffffff1681526020019081526020015f205f6101000a81548160ff02191690831515021790555061014361021360201b60201c565b73ffffffffffffffffffffffffffffffffffffffff168273ffffffffffffffffffffffffffffffffffffffff16847f2f8788117e7eff1d82e926ec794901d17c78024a50270940304540a733656f0d60405160405180910390a4600190506101aa565b5f90505b92915050565b5f5f5f8481526020019081526020015f205f015f8373ffffffffffffffffffffffffffffffffffffffff1673ffffffffffffffffffffffffffffffffffffffff1681526020019081526020015f205f9054906101000a900460ff16905092915050565b5f33905090565b5f5ffd5b5f73ffffffffffffffffffffffffffffffffffffffff82169050919050565b5f6102478261021e565b9050919050565b6102578161023d565b8114610261575f5ffd5b50565b5f815190506102728161024e565b92915050565b5f6020828403121561028d5761028c61021a565b5b5f61029a84828501610264565b91505092915050565b611b4c806102b05f395ff3fe608060405234801561000f575f5ffd5b5060043610610140575f3560e01c80638602a892116100b6578063bf05a7e51161007a578063bf05a7e51461039d578063c430bcda146103b9578063cfa498a3146103d5578063d547741f146103f3578063fc0c546a1461040f578063ffc1b0381461042d57610140565b80638602a892146102e257806391d14854146103005780639227b8d814610330578063928f93b914610361578063a217fddf1461037f57610140565b8063248a9ca311610108578063248a9ca3146101fe57806326a4e8d21461022e5780632f2ff15d1461024a57806336568abe146102665780633af32abf1461028257806346e4f689146102b257610140565b806301ffc9a71461014457806317d47078146101745780631bc6ae8a146101925780631c4cb80f146101b0578063234dba4c146101e0575b5f5ffd5b61015e6004803603810190610159919061134e565b610449565b60405161016b9190611393565b60405180910390f35b61017c6104c2565b60405161018991906113c4565b60405180910390f35b61019a6104c8565b6040516101a791906113f5565b60405180910390f35b6101ca60048036038101906101c59190611468565b6104ec565b6040516101d791906113c4565b60405180910390f35b6101e8610501565b6040516101f591906113c4565b60405180910390f35b610218600480360381019061021391906114bd565b61050d565b60405161022591906113f5565b60405180910390f35b61024860048036038101906102439190611468565b610529565b005b610264600480360381019061025f91906114e8565b610605565b005b610280600480360381019061027b91906114e8565b610627565b005b61029c60048036038101906102979190611468565b6106a2565b6040516102a99190611393565b60405180910390f35b6102cc60048036038101906102c79190611550565b6106bf565b6040516102d9919061158a565b60405180910390f35b6102ea6106fa565b6040516102f791906113c4565b60405180910390f35b61031a600480360381019061031591906114e8565b61072a565b6040516103279190611393565b60405180910390f35b61034a600480360381019061034591906115a3565b61078d565b604051610358929190611677565b60405180910390f35b6103696108dd565b604051610376919061175c565b60405180910390f35b610387610968565b60405161039491906113f5565b60405180910390f35b6103b760048036038101906103b2919061177c565b61096e565b005b6103d360048036038101906103ce9190611468565b610a80565b005b6103dd610c48565b6040516103ea91906113c4565b60405180910390f35b61040d600480360381019061040891906114e8565b610c4e565b005b610417610c70565b6040516104249190611815565b60405180910390f35b61044760048036038101906104429190611468565b610c95565b005b5f7f7965db0b000000000000000000000000000000000000000000000000000000007bffffffffffffffffffffffffffffffffffffffffffffffffffffffff1916827bffffffffffffffffffffffffffffffffffffffffffffffffffffffff191614806104bb57506104ba8261104e565b5b9050919050565b6103e881565b7fd8c0b0264fb5d225f4ba2fb92454d9f4f912be4d27b355562e6ae90ce2f5e74b81565b6004602052805f5260405f205f915090505481565b5f600380549050905090565b5f5f5f8381526020019081526020015f20600101549050919050565b7fd8c0b0264fb5d225f4ba2fb92454d9f4f912be4d27b355562e6ae90ce2f5e74b610553816110b7565b5f73ffffffffffffffffffffffffffffffffffffffff168273ffffffffffffffffffffffffffffffffffffffff16036105c1576040517f08c379a00000000000000000000000000000000000000000000000000000000081526004016105b890611878565b60405180910390fd5b8160015f6101000a81548173ffffffffffffffffffffffffffffffffffffffff021916908373ffffffffffffffffffffffffffffffffffffffff1602179055505050565b61060e8261050d565b610617816110b7565b61062183836110cb565b50505050565b61062f6111b4565b73ffffffffffffffffffffffffffffffffffffffff168173ffffffffffffffffffffffffffffffffffffffff1614610693576040517f6697b23200000000000000000000000000000000000000000000000000000000815260040160405180910390fd5b61069d82826111bb565b505050565b6002602052805f5260405f205f915054906101000a900460ff1681565b600381815481106106ce575f80fd5b905f5260205f20015f915054906101000a900473ffffffffffffffffffffffffffffffffffffffff1681565b5f5f69d3c21bcecceda100000090506127106103e88261071a91906118c3565b6107249190611931565b91505090565b5f5f5f8481526020019081526020015f205f015f8373ffffffffffffffffffffffffffffffffffffffff1673ffffffffffffffffffffffffffffffffffffffff1681526020019081526020015f205f9054906101000a900460ff16905092915050565b5f60605f73ffffffffffffffffffffffffffffffffffffffff168573ffffffffffffffffffffffffffffffffffffffff1614158015610813575060025f8673ffffffffffffffffffffffffffffffffffffffff1673ffffffffffffffffffffffffffffffffffffffff1681526020019081526020015f205f9054906101000a900460ff16155b15610858575f6040518060400160405280600e81526020017f4e6f7457686974656c6973746564000000000000000000000000000000000000815250915091506108d4565b5f6108616106fa565b90505f85856108709190611961565b9050818111156108bc575f6040518060400160405280601181526020017f457863656564734d6178486f6c64696e670000000000000000000000000000008152509350935050506108d4565b600160405180602001604052805f8152509350935050505b94509492505050565b6060600380548060200260200160405190810160405280929190818152602001828054801561095e57602002820191905f5260205f20905b815f9054906101000a900473ffffffffffffffffffffffffffffffffffffffff1673ffffffffffffffffffffffffffffffffffffffff1681526020019060010190808311610915575b5050505050905090565b5f5f1b81565b60015f9054906101000a900473ffffffffffffffffffffffffffffffffffffffff1673ffffffffffffffffffffffffffffffffffffffff163373ffffffffffffffffffffffffffffffffffffffff1614806109ef57506109ee7fd8c0b0264fb5d225f4ba2fb92454d9f4f912be4d27b355562e6ae90ce2f5e74b3361072a565b5b610a2e576040517f08c379a0000000000000000000000000000000000000000000000000000000008152600401610a25906119de565b60405180910390fd5b8173ffffffffffffffffffffffffffffffffffffffff167fd4d649ffdbbb49e961c6a6d3f78bc945c49ebefdafd099ec40bf7126f0ae39ef82604051610a7491906113c4565b60405180910390a25050565b7fd8c0b0264fb5d225f4ba2fb92454d9f4f912be4d27b355562e6ae90ce2f5e74b610aaa816110b7565b60025f8373ffffffffffffffffffffffffffffffffffffffff1673ffffffffffffffffffffffffffffffffffffffff1681526020019081526020015f205f9054906101000a900460ff16610c4457600160025f8473ffffffffffffffffffffffffffffffffffffffff1673ffffffffffffffffffffffffffffffffffffffff1681526020019081526020015f205f6101000a81548160ff021916908315150217905550600382908060018154018082558091505060019003905f5260205f20015f9091909190916101000a81548173ffffffffffffffffffffffffffffffffffffffff021916908373ffffffffffffffffffffffffffffffffffffffff1602179055506001600380549050610bbf91906119fc565b60045f8473ffffffffffffffffffffffffffffffffffffffff1673ffffffffffffffffffffffffffffffffffffffff1681526020019081526020015f20819055508173ffffffffffffffffffffffffffffffffffffffff167fded95a7461813082c997645a1b5e07eb321073a96b7c65dc7f793625383f896e60405160405180910390a25b5050565b61271081565b610c578261050d565b610c60816110b7565b610c6a83836111bb565b50505050565b60015f9054906101000a900473ffffffffffffffffffffffffffffffffffffffff1681565b7fd8c0b0264fb5d225f4ba2fb92454d9f4f912be4d27b355562e6ae90ce2f5e74b610cbf816110b7565b60025f8373ffffffffffffffffffffffffffffffffffffffff1673ffffffffffffffffffffffffffffffffffffffff1681526020019081526020015f205f9054906101000a900460ff161561104a575f60015f9054906101000a900473ffffffffffffffffffffffffffffffffffffffff1673ffffffffffffffffffffffffffffffffffffffff166370a08231846040518263ffffffff1660e01b8152600401610d69919061158a565b602060405180830381865afa158015610d84573d5f5f3e3d5ffd5b505050506040513d601f19601f82011682018060405250810190610da89190611a43565b90505f811115610df15782816040517f29dacd7b000000000000000000000000000000000000000000000000000000008152600401610de8929190611a6e565b60405180910390fd5b5f60025f8573ffffffffffffffffffffffffffffffffffffffff1673ffffffffffffffffffffffffffffffffffffffff1681526020019081526020015f205f6101000a81548160ff0219169083151502179055505f60045f8573ffffffffffffffffffffffffffffffffffffffff1673ffffffffffffffffffffffffffffffffffffffff1681526020019081526020015f205490505f6001600380549050610e9991906119fc565b9050808214610f7f575f60038281548110610eb757610eb6611a95565b5b905f5260205f20015f9054906101000a900473ffffffffffffffffffffffffffffffffffffffff1690508060038481548110610ef657610ef5611a95565b5b905f5260205f20015f6101000a81548173ffffffffffffffffffffffffffffffffffffffff021916908373ffffffffffffffffffffffffffffffffffffffff1602179055508260045f8373ffffffffffffffffffffffffffffffffffffffff1673ffffffffffffffffffffffffffffffffffffffff1681526020019081526020015f2081905550505b6003805480610f9157610f90611ac2565b5b600190038181905f5260205f20015f6101000a81549073ffffffffffffffffffffffffffffffffffffffff0219169055905560045f8673ffffffffffffffffffffffffffffffffffffffff1673ffffffffffffffffffffffffffffffffffffffff1681526020019081526020015f205f90558473ffffffffffffffffffffffffffffffffffffffff167f45876485d2f19b25ec8e89e9f6411c51d0ec5dbc3a924c2bb99112e1169faf7c60405160405180910390a25050505b5050565b5f7f01ffc9a7000000000000000000000000000000000000000000000000000000007bffffffffffffffffffffffffffffffffffffffffffffffffffffffff1916827bffffffffffffffffffffffffffffffffffffffffffffffffffffffff1916149050919050565b6110c8816110c36111b4565b6112a4565b50565b5f6110d6838361072a565b6111aa5760015f5f8581526020019081526020015f205f015f8473ffffffffffffffffffffffffffffffffffffffff1673ffffffffffffffffffffffffffffffffffffffff1681526020019081526020015f205f6101000a81548160ff0219169083151502179055506111476111b4565b73ffffffffffffffffffffffffffffffffffffffff168273ffffffffffffffffffffffffffffffffffffffff16847f2f8788117e7eff1d82e926ec794901d17c78024a50270940304540a733656f0d60405160405180910390a4600190506111ae565b5f90505b92915050565b5f33905090565b5f6111c6838361072a565b1561129a575f5f5f8581526020019081526020015f205f015f8473ffffffffffffffffffffffffffffffffffffffff1673ffffffffffffffffffffffffffffffffffffffff1681526020019081526020015f205f6101000a81548160ff0219169083151502179055506112376111b4565b73ffffffffffffffffffffffffffffffffffffffff168273ffffffffffffffffffffffffffffffffffffffff16847ff6391f5c32d9c69d2a47ea670b442974b53935d1edc7fd64eb21e047a839171b60405160405180910390a46001905061129e565b5f90505b92915050565b6112ae828261072a565b6112f15780826040517fe2517d3f0000000000000000000000000000000000000000000000000000000081526004016112e8929190611aef565b60405180910390fd5b5050565b5f5ffd5b5f7fffffffff0000000000000000000000000000000000000000000000000000000082169050919050565b61132d816112f9565b8114611337575f5ffd5b50565b5f8135905061134881611324565b92915050565b5f60208284031215611363576113626112f5565b5b5f6113708482850161133a565b91505092915050565b5f8115159050919050565b61138d81611379565b82525050565b5f6020820190506113a65f830184611384565b92915050565b5f819050919050565b6113be816113ac565b82525050565b5f6020820190506113d75f8301846113b5565b92915050565b5f819050919050565b6113ef816113dd565b82525050565b5f6020820190506114085f8301846113e6565b92915050565b5f73ffffffffffffffffffffffffffffffffffffffff82169050919050565b5f6114378261140e565b9050919050565b6114478161142d565b8114611451575f5ffd5b50565b5f813590506114628161143e565b92915050565b5f6020828403121561147d5761147c6112f5565b5b5f61148a84828501611454565b91505092915050565b61149c816113dd565b81146114a6575f5ffd5b50565b5f813590506114b781611493565b92915050565b5f602082840312156114d2576114d16112f5565b5b5f6114df848285016114a9565b91505092915050565b5f5f604083850312156114fe576114fd6112f5565b5b5f61150b858286016114a9565b925050602061151c85828601611454565b9150509250929050565b61152f816113ac565b8114611539575f5ffd5b50565b5f8135905061154a81611526565b92915050565b5f60208284031215611565576115646112f5565b5b5f6115728482850161153c565b91505092915050565b6115848161142d565b82525050565b5f60208201905061159d5f83018461157b565b92915050565b5f5f5f5f608085870312156115bb576115ba6112f5565b5b5f6115c887828801611454565b94505060206115d987828801611454565b93505060406115ea8782880161153c565b92505060606115fb8782880161153c565b91505092959194509250565b5f81519050919050565b5f82825260208201905092915050565b8281835e5f83830152505050565b5f601f19601f8301169050919050565b5f61164982611607565b6116538185611611565b9350611663818560208601611621565b61166c8161162f565b840191505092915050565b5f60408201905061168a5f830185611384565b818103602083015261169c818461163f565b90509392505050565b5f81519050919050565b5f82825260208201905092915050565b5f819050602082019050919050565b6116d78161142d565b82525050565b5f6116e883836116ce565b60208301905092915050565b5f602082019050919050565b5f61170a826116a5565b61171481856116af565b935061171f836116bf565b805f5b8381101561174f57815161173688826116dd565b9750611741836116f4565b925050600181019050611722565b5085935050505092915050565b5f6020820190508181035f8301526117748184611700565b905092915050565b5f5f60408385031215611792576117916112f5565b5b5f61179f85828601611454565b92505060206117b08582860161153c565b9150509250929050565b5f819050919050565b5f6117dd6117d86117d38461140e565b6117ba565b61140e565b9050919050565b5f6117ee826117c3565b9050919050565b5f6117ff826117e4565b9050919050565b61180f816117f5565b82525050565b5f6020820190506118285f830184611806565b92915050565b7f496e76616c6964546f6b656e00000000000000000000000000000000000000005f82015250565b5f611862600c83611611565b915061186d8261182e565b602082019050919050565b5f6020820190508181035f83015261188f81611856565b9050919050565b7f4e487b71000000000000000000000000000000000000000000000000000000005f52601160045260245ffd5b5f6118cd826113ac565b91506118d8836113ac565b92508282026118e6816113ac565b915082820484148315176118fd576118fc611896565b5b5092915050565b7f4e487b71000000000000000000000000000000000000000000000000000000005f52601260045260245ffd5b5f61193b826113ac565b9150611946836113ac565b92508261195657611955611904565b5b828204905092915050565b5f61196b826113ac565b9150611976836113ac565b925082820190508082111561198e5761198d611896565b5b92915050565b7f4f6e6c79546f6b656e00000000000000000000000000000000000000000000005f82015250565b5f6119c8600983611611565b91506119d382611994565b602082019050919050565b5f6020820190508181035f8301526119f5816119bc565b9050919050565b5f611a06826113ac565b9150611a11836113ac565b9250828203905081811115611a2957611a28611896565b5b92915050565b5f81519050611a3d81611526565b92915050565b5f60208284031215611a5857611a576112f5565b5b5f611a6584828501611a2f565b91505092915050565b5f604082019050611a815f83018561157b565b611a8e60208301846113b5565b9392505050565b7f4e487b71000000000000000000000000000000000000000000000000000000005f52603260045260245ffd5b7f4e487b71000000000000000000000000000000000000000000000000000000005f52603160045260245ffd5b5f604082019050611b025f83018561157b565b611b0f60208301846113e6565b939250505056fea26469706673582212207d50babf1c39d240a91253df421180b9609f16a407ebbede20108c37d1162af364736f6c634300081e0033","linkReferences":{}},"methodIdentifiers":{"BASIS_POINTS_DENOMINATOR()":"cfa498a3","DEFAULT_ADMIN_ROLE()":"a217fddf","MAX_HOLDING_BASIS_POINTS()":"17d47078","SERVICE_PROVIDER_ROLE()":"1bc6ae8a","blacklistInvestor(address)":"ffc1b038","getAllWhitelistedInvestors()":"928f93b9","getMaxHolding()":"8602a892","getRoleAdmin(bytes32)":"248a9ca3","getWhitelistedInvestorsCount()":"234dba4c","grantRole(bytes32,address)":"2f2ff15d","hasRole(bytes32,address)":"91d14854","investorIndex(address)":"1c4cb80f","isWhitelisted(address)":"3af32abf","notifyClawbackReceived(address,uint256)":"bf05a7e5","renounceRole(bytes32,address)":"36568abe","revokeRole(bytes32,address)":"d547741f","setTokenAddress(address)":"26a4e8d2","supportsInterface(bytes4)":"01ffc9a7","token()":"fc0c546a","validateTransfer(address,address,uint256,uint256)":"9227b8d8","whitelistInvestor(address)":"c430bcda","whitelistedInvestors(uint256)":"46e4f689"},"id":31}