{"abi":[{"type":"constructor","inputs":[{"name":"name","type":"string","internalType":"string"},{"name":"symbol","type":"string","internalType":"string"},{"name":"_complianceManager","type":"address","internalType":"address"}],"stateMutability":"nonpayable"},{"type":"function","name":"DEFAULT_ADMIN_ROLE","inputs":[],"outputs":[{"name":"","type":"bytes32","internalType":"bytes32"}],"stateMutability":"view"},{"type":"function","name":"HARD_CAP","inputs":[],"outputs":[{"name":"","type":"uint256","internalType":"uint256"}],"stateMutability":"view"},{"type":"function","name":"SERVICE_PROVIDER_ROLE","inputs":[],"outputs":[{"name":"","type":"bytes32","internalType":"bytes32"}],"stateMutability":"view"},{"type":"function","name":"TOKEN_PRICE_WEI","inputs":[],"outputs":[{"name":"","type":"uint256","internalType":"uint256"}],"stateMutability":"view"},{"type":"function","name":"allowance","inputs":[{"name":"owner","type":"address","internalType":"address"},{"name":"spender","type":"address","internalType":"address"}],"outputs":[{"name":"","type":"uint256","internalType":"uint256"}],"stateMutability":"view"},{"type":"function","name":"approve","inputs":[{"name":"spender","type":"address","internalType":"address"},{"name":"value","type":"uint256","internalType":"uint256"}],"outputs":[{"name":"","type":"bool","internalType":"bool"}],"stateMutability":"nonpayable"},{"type":"function","name":"balanceOf","inputs":[{"name":"account","type":"address","internalType":"address"}],"outputs":[{"name":"","type":"uint256","internalType":"uint256"}],"stateMutability":"view"},{"type":"function","name":"burn","inputs":[{"name":"from","type":"address","internalType":"address"},{"name":"amount","type":"uint256","internalType":"uint256"}],"outputs":[],"stateMutability":"nonpayable"},{"type":"function","name":"clawbackTokens","inputs":[{"name":"from","type":"address","internalType":"address"},{"name":"amount","type":"uint256","internalType":"uint256"}],"outputs":[],"stateMutability":"nonpayable"},{"type":"function","name":"complianceManager","inputs":[],"outputs":[{"name":"","type":"address","internalType":"contract ComplianceManager"}],"stateMutability":"view"},{"type":"function","name":"decimals","inputs":[],"outputs":[{"name":"","type":"uint8","internalType":"uint8"}],"stateMutability":"view"},{"type":"function","name":"getPropertyInfo","inputs":[],"outputs":[{"name":"","type":"string","internalType":"string"},{"name":"","type":"string","internalType":"string"},{"name":"","type":"uint256","internalType":"uint256"},{"name":"","type":"uint256","internalType":"uint256"}],"stateMutability":"view"},{"type":"function","name":"getRoleAdmin","inputs":[{"name":"role","type":"bytes32","internalType":"bytes32"}],"outputs":[{"name":"","type":"bytes32","internalType":"bytes32"}],"stateMutability":"view"},{"type":"function","name":"getTotalRaised","inputs":[],"outputs":[{"name":"","type":"uint256","internalType":"uint256"}],"stateMutability":"view"},{"type":"function","name":"grantRole","inputs":[{"name":"role","type":"bytes32","internalType":"bytes32"},{"name":"account","type":"address","internalType":"address"}],"outputs":[],"stateMutability":"nonpayable"},{"type":"function","name":"hasRole","inputs":[{"name":"role","type":"bytes32","internalType":"bytes32"},{"name":"account","type":"address","internalType":"address"}],"outputs":[{"name":"","type":"bool","internalType":"bool"}],"stateMutability":"view"},{"type":"function","name":"isOversubscribed","inputs":[],"outputs":[{"name":"","type":"bool","internalType":"bool"}],"stateMutability":"view"},{"type":"function","name":"mint","inputs":[{"name":"to","type":"address","internalType":"address"},{"name":"amount","type":"uint256","internalType":"uint256"}],"outputs":[],"stateMutability":"nonpayable"},{"type":"function","name":"name","inputs":[],"outputs":[{"name":"","type":"string","internalType":"string"}],"stateMutability":"view"},{"type":"function","name":"propertyLocation","inputs":[],"outputs":[{"name":"","type":"string","internalType":"string"}],"stateMutability":"view"},{"type":"function","name":"propertyName","inputs":[],"outputs":[{"name":"","type":"string","internalType":"string"}],"stateMutability":"view"},{"type":"function","name":"propertyTotalValue","inputs":[],"outputs":[{"name":"","type":"uint256","internalType":"uint256"}],"stateMutability":"view"},{"type":"function","name":"purchaseTokens","inputs":[],"outputs":[],"stateMutability":"payable"},{"type":"function","name":"renounceRole","inputs":[{"name":"role","type":"bytes32","internalType":"bytes32"},{"name":"callerConfirmation","type":"address","internalType":"address"}],"outputs":[],"stateMutability":"nonpayable"},{"type":"function","name":"revokeRole","inputs":[{"name":"role","type":"bytes32","internalType":"bytes32"},{"name":"account","type":"address","internalType":"address"}],"outputs":[],"stateMutability":"nonpayable"},{"type":"function","name":"setPropertyInfo","inputs":[{"name":"name","type":"string","internalType":"string"},{"name":"location","type":"string","internalType":"string"},{"name":"totalValue","type":"uint256","internalType":"uint256"},{"name":"_tokenPrice","type":"uint256","internalType":"uint256"}],"outputs":[],"stateMutability":"nonpayable"},{"type":"function","name":"supportsInterface","inputs":[{"name":"interfaceId","type":"bytes4","internalType":"bytes4"}],"outputs":[{"name":"","type":"bool","internalType":"bool"}],"stateMutability":"view"},{"type":"function","name":"symbol","inputs":[],"outputs":[{"name":"","type":"string","internalType":"string"}],"stateMutability":"view"},{"type":"function","name":"tokenPriceWei","inputs":[],"outputs":[{"name":"","type":"uint256","internalType":"uint256"}],"stateMutability":"view"},{"type":"function","name":"totalRaised","inputs":[],"outputs":[{"name":"","type":"uint256","internalType":"uint256"}],"stateMutability":"view"},{"type":"function","name":"totalSupply","inputs":[],"outputs":[{"name":"","type":"uint256","internalType":"uint256"}],"stateMutability":"view"},{"type":"function","name":"transfer","inputs":[{"name":"to","type":"address","internalType":"address"},{"name":"value","type":"uint256","internalType":"uint256"}],"outputs":[{"name":"","type":"bool","internalType":"bool"}],"stateMutability":"nonpayable"},{"type":"function","name":"transferFrom","inputs":[{"name":"from","type":"address","internalType":"address"},{"name":"to","type":"address","internalType":"address"},{"name":"value","type":"uint256","internalType":"uint256"}],"outputs":[{"name":"","type":"bool","internalType":"bool"}],"stateMutability":"nonpayable"},{"type":"function","name":"withdraw","inputs":[],"outputs":[],"stateMutability":"nonpayable"},{"type":"event","name":"Approval","inputs":[{"name":"owner","type":"address","indexed":true,"internalType":"address"},{"name":"spender","type":"address","indexed":true,"internalType":"address"},{"name":"value","type":"uint256","indexed":false,"internalType":"uint256"}],"anonymous":false},{"type":"event","name":"PropertyInfoSet","inputs":[{"name":"name","type":"string","indexed":false,"internalType":"string"},{"name":"location","type":"string","indexed":false,"internalType":"string"},{"name":"totalValue","type":"uint256","indexed":false,"internalType":"uint256"},{"name":"tokenPrice","type":"uint256","indexed":false,"internalType":"uint256"}],"anonymous":false},{"type":"event","name":"RoleAdminChanged","inputs":[{"name":"role","type":"bytes32","indexed":true,"internalType":"bytes32"},{"name":"previousAdminRole","type":"bytes32","indexed":true,"internalType":"bytes32"},{"name":"newAdminRole","type":"bytes32","indexed":true,"internalType":"bytes32"}],"anonymous":false},{"type":"event","name":"RoleGranted","inputs":[{"name":"role","type":"bytes32","indexed":true,"internalType":"bytes32"},{"name":"account","type":"address","indexed":true,"internalType":"address"},{"name":"sender","type":"address","indexed":true,"internalType":"address"}],"anonymous":false},{"type":"event","name":"RoleRevoked","inputs":[{"name":"role","type":"bytes32","indexed":true,"internalType":"bytes32"},{"name":"account","type":"address","indexed":true,"internalType":"address"},{"name":"sender","type":"address","indexed":true,"internalType":"address"}],"anonymous":false},{"type":"event","name":"TokensClawedBack","inputs":[{"name":"from","type":"address","indexed":true,"internalType":"address"},{"name":"amount","type":"uint256","indexed":false,"internalType":"uint256"},{"name":"operator","type":"address","indexed":true,"internalType":"address"}],"anonymous":false},{"type":"event","name":"TokensPurchased","inputs":[{"name":"buyer","type":"address","indexed":true,"internalType":"address"},{"name":"amount","type":"uint256","indexed":false,"internalType":"uint256"},{"name":"ethPaid","type":"uint256","indexed":false,"internalType":"uint256"}],"anonymous":false},{"type":"event","name":"Transfer","inputs":[{"name":"from","type":"address","indexed":true,"internalType":"address"},{"name":"to","type":"address","indexed":true,"internalType":"address"},{"name":"value","type":"uint256","indexed":false,"internalType":"uint256"}],"anonymous":false},{"type":"event","name":"TransferValidated","inputs":[{"name":"from","type":"address","indexed":true,"internalType":"address"},{"name":"to","type":"address","indexed":true,"internalType":"address"},{"name":"amount","type":"uint256","indexed":false,"internalType":"uint256"},{"name":"approved","type":"bool","indexed":false,"internalType":"bool"}],"anonymous":false},{"type":"error","name":"AccessControlBadConfirmation","inputs":[]},{"type":"error","name":"AccessControlUnauthorizedAccount","inputs":[{"name":"account","type":"address","internalType":"address"},{"name":"neededRole","type":"bytes32","internalType":"bytes32"}]},{"type":"error","name":"CapExceeded","inputs":[{"name":"requested","type":"uint256","internalType":"uint256"},{"name":"available","type":"uint256","internalType":"uint256"}]},{"type":"error","name":"ERC20InsufficientAllowance","inputs":[{"name":"spender","type":"address","internalType":"address"},{"name":"allowance","type":"uint256","internalType":"uint256"},{"name":"needed","type":"uint256","internalType":"uint256"}]},{"type":"error","name":"ERC20InsufficientBalance","inputs":[{"name":"sender","type":"address","internalType":"address"},{"name":"balance","type":"uint256","internalType":"uint256"},{"name":"needed","type":"uint256","internalType":"uint256"}]},{"type":"error","name":"ERC20InvalidApprover","inputs":[{"name":"approver","type":"address","internalType":"address"}]},{"type":"error","name":"ERC20InvalidReceiver","inputs":[{"name":"receiver","type":"address","internalType":"address"}]},{"type":"error","name":"ERC20InvalidSender","inputs":[{"name":"sender","type":"address","internalType":"address"}]},{"type":"error","name":"ERC20InvalidSpender","inputs":[{"name":"spender","type":"address","internalType":"address"}]},{"type":"error","name":"ExceedsMaxHolding","inputs":[{"name":"currentBalance","type":"uint256","internalType":"uint256"},{"name":"maxHolding","type":"uint256","internalType":"uint256"}]},{"type":"error","name":"InvalidAmount","inputs":[]},{"type":"error","name":"InvalidComplianceManager","inputs":[]},{"type":"error","name":"NotWhitelisted","inputs":[{"name":"investor","type":"address","internalType":"address"}]},{"type":"error","name":"ReentrancyGuardReentrantCall","inputs":[]},{"type":"error","name":"TransferFailed","inputs":[]}],"bytecode":{"object":"0x608060405234801561000f575f5ffd5b506040516137ac3803806137ac833981810160405281019061003191906103f1565b828281600390816100429190610689565b5080600490816100529190610689565b505050600160068190555080600b5f6101000a81548173ffffffffffffffffffffffffffffffffffffffff021916908373ffffffffffffffffffffffffffffffffffffffff1602179055506100af5f5f1b336100e960201b60201c565b506100e07fd8c0b0264fb5d225f4ba2fb92454d9f4f912be4d27b355562e6ae90ce2f5e74b336100e960201b60201c565b50505050610758565b5f6100fa83836101df60201b60201c565b6101d557600160055f8581526020019081526020015f205f015f8473ffffffffffffffffffffffffffffffffffffffff1673ffffffffffffffffffffffffffffffffffffffff1681526020019081526020015f205f6101000a81548160ff02191690831515021790555061017261024360201b60201c565b73ffffffffffffffffffffffffffffffffffffffff168273ffffffffffffffffffffffffffffffffffffffff16847f2f8788117e7eff1d82e926ec794901d17c78024a50270940304540a733656f0d60405160405180910390a4600190506101d9565b5f90505b92915050565b5f60055f8481526020019081526020015f205f015f8373ffffffffffffffffffffffffffffffffffffffff1673ffffffffffffffffffffffffffffffffffffffff1681526020019081526020015f205f9054906101000a900460ff16905092915050565b5f33905090565b5f604051905090565b5f5ffd5b5f5ffd5b5f5ffd5b5f5ffd5b5f601f19601f8301169050919050565b7f4e487b71000000000000000000000000000000000000000000000000000000005f52604160045260245ffd5b6102a982610263565b810181811067ffffffffffffffff821117156102c8576102c7610273565b5b80604052505050565b5f6102da61024a565b90506102e682826102a0565b919050565b5f67ffffffffffffffff82111561030557610304610273565b5b61030e82610263565b9050602081019050919050565b8281835e5f83830152505050565b5f61033b610336846102eb565b6102d1565b9050828152602081018484840111156103575761035661025f565b5b61036284828561031b565b509392505050565b5f82601f83011261037e5761037d61025b565b5b815161038e848260208601610329565b91505092915050565b5f73ffffffffffffffffffffffffffffffffffffffff82169050919050565b5f6103c082610397565b9050919050565b6103d0816103b6565b81146103da575f5ffd5b50565b5f815190506103eb816103c7565b92915050565b5f5f5f6060848603121561040857610407610253565b5b5f84015167ffffffffffffffff81111561042557610424610257565b5b6104318682870161036a565b935050602084015167ffffffffffffffff81111561045257610451610257565b5b61045e8682870161036a565b925050604061046f868287016103dd565b9150509250925092565b5f81519050919050565b7f4e487b71000000000000000000000000000000000000000000000000000000005f52602260045260245ffd5b5f60028204905060018216806104c757607f821691505b6020821081036104da576104d9610483565b5b50919050565b5f819050815f5260205f209050919050565b5f6020601f8301049050919050565b5f82821b905092915050565b5f6008830261053c7fffffffffffffffffffffffffffffffffffffffffffffffffffffffffffffffff82610501565b6105468683610501565b95508019841693508086168417925050509392505050565b5f819050919050565b5f819050919050565b5f61058a6105856105808461055e565b610567565b61055e565b9050919050565b5f819050919050565b6105a383610570565b6105b76105af82610591565b84845461050d565b825550505050565b5f5f905090565b6105ce6105bf565b6105d981848461059a565b505050565b5b818110156105fc576105f15f826105c6565b6001810190506105df565b5050565b601f82111561064157610612816104e0565b61061b846104f2565b8101602085101561062a578190505b61063e610636856104f2565b8301826105de565b50505b505050565b5f82821c905092915050565b5f6106615f1984600802610646565b1980831691505092915050565b5f6106798383610652565b9150826002028217905092915050565b61069282610479565b67ffffffffffffffff8111156106ab576106aa610273565b5b6106b582546104b0565b6106c0828285610600565b5f60209050601f8311600181146106f1575f84156106df578287015190505b6106e9858261066e565b865550610750565b601f1984166106ff866104e0565b5f5b8281101561072657848901518255600182019150602085019450602081019050610701565b86831015610743578489015161073f601f891682610652565b8355505b6001600288020188555050505b505050505050565b613047806107655f395ff3fe6080604052600436106101f8575f3560e01c80635de5f3be1161010c578063a9059cbb1161009f578063c5c4744c1161006e578063c5c4744c146106ff578063d547741f14610729578063d6b20c9f14610751578063dd62ed3e1461077b578063ff7bce23146107b7576101f8565b8063a9059cbb14610647578063b38091f814610683578063b5d2de5c146106ab578063c0a05ad5146106d5576101f8565b806395d89b41116100db57806395d89b41146105a15780639dc29fac146105cb5780639f550293146105f3578063a217fddf1461061d576101f8565b80635de5f3be146104d457806362f957fa1461050157806370a082311461052957806391d1485414610565576101f8565b8063248a9ca31161018f5780633290ce291161015e5780633290ce291461043a57806336568abe146104445780633a03171c1461046c5780633ccfd60b1461049657806340c10f19146104ac576101f8565b8063248a9ca3146103825780632c35c08c146103be5780632f2ff15d146103e8578063313ce56714610410576101f8565b8063095ea7b3116101cb578063095ea7b3146102b657806318160ddd146102f25780631bc6ae8a1461031c57806323b872dd14610346576101f8565b806301ffc9a7146101fc5780630499ed131461023857806305d0f15b1461026257806306fdde031461028c575b5f5ffd5b348015610207575f5ffd5b50610222600480360381019061021d9190612325565b6107e1565b60405161022f919061236a565b60405180910390f35b348015610243575f5ffd5b5061024c61085a565b604051610259919061239b565b60405180910390f35b34801561026d575f5ffd5b50610276610865565b604051610283919061239b565b60405180910390f35b348015610297575f5ffd5b506102a061086b565b6040516102ad9190612424565b60405180910390f35b3480156102c1575f5ffd5b506102dc60048036038101906102d791906124c8565b6108fb565b6040516102e9919061236a565b60405180910390f35b3480156102fd575f5ffd5b5061030661091d565b604051610313919061239b565b60405180910390f35b348015610327575f5ffd5b50610330610926565b60405161033d919061251e565b60405180910390f35b348015610351575f5ffd5b5061036c60048036038101906103679190612537565b61094a565b604051610379919061236a565b60405180910390f35b34801561038d575f5ffd5b506103a860048036038101906103a391906125b1565b610978565b6040516103b5919061251e565b60405180910390f35b3480156103c9575f5ffd5b506103d2610995565b6040516103df9190612424565b60405180910390f35b3480156103f3575f5ffd5b5061040e600480360381019061040991906125dc565b610a21565b005b34801561041b575f5ffd5b50610424610a43565b6040516104319190612635565b60405180910390f35b610442610a4b565b005b34801561044f575f5ffd5b5061046a600480360381019061046591906125dc565b610e5b565b005b348015610477575f5ffd5b50610480610ed6565b60405161048d919061239b565b60405180910390f35b3480156104a1575f5ffd5b506104aa610ee4565b005b3480156104b7575f5ffd5b506104d260048036038101906104cd91906124c8565b610fbd565b005b3480156104df575f5ffd5b506104e8610ff4565b6040516104f8949392919061264e565b60405180910390f35b34801561050c575f5ffd5b50610527600480360381019061052291906124c8565b611125565b005b348015610534575f5ffd5b5061054f600480360381019061054a919061269f565b6112a5565b60405161055c919061239b565b60405180910390f35b348015610570575f5ffd5b5061058b600480360381019061058691906125dc565b6112ea565b604051610598919061236a565b60405180910390f35b3480156105ac575f5ffd5b506105b561134e565b6040516105c29190612424565b60405180910390f35b3480156105d6575f5ffd5b506105f160048036038101906105ec91906124c8565b6113de565b005b3480156105fe575f5ffd5b50610607611415565b604051610614919061239b565b60405180910390f35b348015610628575f5ffd5b5061063161141e565b60405161063e919061251e565b60405180910390f35b348015610652575f5ffd5b5061066d600480360381019061066891906124c8565b611424565b60405161067a919061236a565b60405180910390f35b34801561068e575f5ffd5b506106a960048036038101906106a491906127f6565b611446565b005b3480156106b6575f5ffd5b506106bf6114e0565b6040516106cc9190612424565b60405180910390f35b3480156106e0575f5ffd5b506106e961156c565b6040516106f6919061236a565b60405180910390f35b34801561070a575f5ffd5b50610713611587565b604051610720919061239b565b60405180910390f35b348015610734575f5ffd5b5061074f600480360381019061074a91906125dc565b61158d565b005b34801561075c575f5ffd5b506107656115af565b604051610772919061239b565b60405180910390f35b348015610786575f5ffd5b506107a1600480360381019061079c9190612892565b6115b5565b6040516107ae919061239b565b60405180910390f35b3480156107c2575f5ffd5b506107cb611637565b6040516107d8919061292b565b60405180910390f35b5f7f7965db0b000000000000000000000000000000000000000000000000000000007bffffffffffffffffffffffffffffffffffffffffffffffffffffffff1916827bffffffffffffffffffffffffffffffffffffffffffffffffffffffff1916148061085357506108528261165c565b5b9050919050565b66038d7ea4c6800081565b600a5481565b60606003805461087a90612971565b80601f01602080910402602001604051908101604052809291908181526020018280546108a690612971565b80156108f15780601f106108c8576101008083540402835291602001916108f1565b820191905f5260205f20905b8154815290600101906020018083116108d457829003601f168201915b5050505050905090565b5f5f6109056116c5565b90506109128185856116cc565b600191505092915050565b5f600254905090565b7fd8c0b0264fb5d225f4ba2fb92454d9f4f912be4d27b355562e6ae90ce2f5e74b81565b5f5f6109546116c5565b90506109618582856116de565b61096c858585611771565b60019150509392505050565b5f60055f8381526020019081526020015f20600101549050919050565b600780546109a290612971565b80601f01602080910402602001604051908101604052809291908181526020018280546109ce90612971565b8015610a195780601f106109f057610100808354040283529160200191610a19565b820191905f5260205f20905b8154815290600101906020018083116109fc57829003601f168201915b505050505081565b610a2a82610978565b610a3381611861565b610a3d8383611875565b50505050565b5f6012905090565b610a5361195f565b600b5f9054906101000a900473ffffffffffffffffffffffffffffffffffffffff1673ffffffffffffffffffffffffffffffffffffffff16633af32abf336040518263ffffffff1660e01b8152600401610aad91906129b0565b602060405180830381865afa158015610ac8573d5f5f3e3d5ffd5b505050506040513d601f19601f82011682018060405250810190610aec91906129f3565b610b2d57336040517fdf17e316000000000000000000000000000000000000000000000000000000008152600401610b2491906129b0565b60405180910390fd5b5f670de0b6b3a7640000600a5434610b459190612a78565b610b4f9190612aa8565b90505f8103610b8a576040517f2c5211c600000000000000000000000000000000000000000000000000000000815260040160405180910390fd5b5f610b94336112a5565b90505f600b5f9054906101000a900473ffffffffffffffffffffffffffffffffffffffff1673ffffffffffffffffffffffffffffffffffffffff16638602a8926040518163ffffffff1660e01b8152600401602060405180830381865afa158015610c01573d5f5f3e3d5ffd5b505050506040513d601f19601f82011682018060405250810190610c259190612afd565b9050808383610c349190612b28565b1115610c84578282610c469190612b28565b816040517f7d222837000000000000000000000000000000000000000000000000000000008152600401610c7b929190612b5b565b60405180910390fd5b5f610c8d61091d565b69d3c21bcecceda1000000610ca29190612b82565b90505f818511610cb25784610cb4565b815b90505f8103610cfc5784826040517ff480e285000000000000000000000000000000000000000000000000000000008152600401610cf3929190612b5b565b60405180910390fd5b5f670de0b6b3a7640000600a5483610d149190612aa8565b610d1e9190612a78565b90505f8134610d2d9190612b82565b9050610d3933846119a5565b81600c5f828254610d4a9190612b28565b925050819055505f811115610dfa575f3373ffffffffffffffffffffffffffffffffffffffff1682604051610d7e90612be2565b5f6040518083038185875af1925050503d805f8114610db8576040519150601f19603f3d011682016040523d82523d5f602084013e610dbd565b606091505b5050905080610df8576040517f90b8ec1800000000000000000000000000000000000000000000000000000000815260040160405180910390fd5b505b3373ffffffffffffffffffffffffffffffffffffffff167f8fafebcaf9d154343dad25669bfa277f4fbacd7ac6b0c4fed522580e040a0f338484604051610e42929190612b5b565b60405180910390a250505050505050610e59611a24565b565b610e636116c5565b73ffffffffffffffffffffffffffffffffffffffff168173ffffffffffffffffffffffffffffffffffffffff1614610ec7576040517f6697b23200000000000000000000000000000000000000000000000000000000815260040160405180910390fd5b610ed18282611a2e565b505050565b69d3c21bcecceda100000081565b610f0d7fd8c0b0264fb5d225f4ba2fb92454d9f4f912be4d27b355562e6ae90ce2f5e74b611861565b5f4790505f811115610fba575f3373ffffffffffffffffffffffffffffffffffffffff1682604051610f3e90612be2565b5f6040518083038185875af1925050503d805f8114610f78576040519150601f19603f3d011682016040523d82523d5f602084013e610f7d565b606091505b5050905080610fb8576040517f90b8ec1800000000000000000000000000000000000000000000000000000000815260040160405180910390fd5b505b50565b610fe67fd8c0b0264fb5d225f4ba2fb92454d9f4f912be4d27b355562e6ae90ce2f5e74b611861565b610ff082826119a5565b5050565b6060805f5f60076008600954600a5483805461100f90612971565b80601f016020809104026020016040519081016040528092919081815260200182805461103b90612971565b80156110865780601f1061105d57610100808354040283529160200191611086565b820191905f5260205f20905b81548152906001019060200180831161106957829003601f168201915b5050505050935082805461109990612971565b80601f01602080910402602001604051908101604052809291908181526020018280546110c590612971565b80156111105780601f106110e757610100808354040283529160200191611110565b820191905f5260205f20905b8154815290600101906020018083116110f357829003601f168201915b50505050509250935093509350935090919293565b61114e7fd8c0b0264fb5d225f4ba2fb92454d9f4f912be4d27b355562e6ae90ce2f5e74b611861565b5f8103611187576040517f2c5211c600000000000000000000000000000000000000000000000000000000815260040160405180910390fd5b6111b382600b5f9054906101000a900473ffffffffffffffffffffffffffffffffffffffff1683611771565b600b5f9054906101000a900473ffffffffffffffffffffffffffffffffffffffff1673ffffffffffffffffffffffffffffffffffffffff1663bf05a7e583836040518363ffffffff1660e01b815260040161120f929190612bf6565b5f604051808303815f87803b158015611226575f5ffd5b505af1158015611238573d5f5f3e3d5ffd5b505050503373ffffffffffffffffffffffffffffffffffffffff168273ffffffffffffffffffffffffffffffffffffffff167fc30f939ffc29916c5e62f3678bda8ebcd2bc3a85603acc3670e94e6105169ede83604051611299919061239b565b60405180910390a35050565b5f5f5f8373ffffffffffffffffffffffffffffffffffffffff1673ffffffffffffffffffffffffffffffffffffffff1681526020019081526020015f20549050919050565b5f60055f8481526020019081526020015f205f015f8373ffffffffffffffffffffffffffffffffffffffff1673ffffffffffffffffffffffffffffffffffffffff1681526020019081526020015f205f9054906101000a900460ff16905092915050565b60606004805461135d90612971565b80601f016020809104026020016040519081016040528092919081815260200182805461138990612971565b80156113d45780601f106113ab576101008083540402835291602001916113d4565b820191905f5260205f20905b8154815290600101906020018083116113b757829003601f168201915b5050505050905090565b6114077fd8c0b0264fb5d225f4ba2fb92454d9f4f912be4d27b355562e6ae90ce2f5e74b611861565b6114118282611b18565b5050565b5f600c54905090565b5f5f1b81565b5f5f61142e6116c5565b905061143b818585611771565b600191505092915050565b61146f7fd8c0b0264fb5d225f4ba2fb92454d9f4f912be4d27b355562e6ae90ce2f5e74b611861565b836007908161147e9190612db4565b50826008908161148e9190612db4565b508160098190555080600a819055507f22dec4f947219f2c9d6f5524713508032a958b05fdf1815ccc0e5d9e062e1107848484846040516114d2949392919061264e565b60405180910390a150505050565b600880546114ed90612971565b80601f016020809104026020016040519081016040528092919081815260200182805461151990612971565b80156115645780601f1061153b57610100808354040283529160200191611564565b820191905f5260205f20905b81548152906001019060200180831161154757829003601f168201915b505050505081565b5f69d3c21bcecceda100000061158061091d565b1015905090565b600c5481565b61159682610978565b61159f81611861565b6115a98383611a2e565b50505050565b60095481565b5f60015f8473ffffffffffffffffffffffffffffffffffffffff1673ffffffffffffffffffffffffffffffffffffffff1681526020019081526020015f205f8373ffffffffffffffffffffffffffffffffffffffff1673ffffffffffffffffffffffffffffffffffffffff1681526020019081526020015f2054905092915050565b600b5f9054906101000a900473ffffffffffffffffffffffffffffffffffffffff1681565b5f7f01ffc9a7000000000000000000000000000000000000000000000000000000007bffffffffffffffffffffffffffffffffffffffffffffffffffffffff1916827bffffffffffffffffffffffffffffffffffffffffffffffffffffffff1916149050919050565b5f33905090565b6116d98383836001611b97565b505050565b5f6116e984846115b5565b90507fffffffffffffffffffffffffffffffffffffffffffffffffffffffffffffffff81101561176b578181101561175c578281836040517ffb8f41b200000000000000000000000000000000000000000000000000000000815260040161175393929190612e83565b60405180910390fd5b61176a84848484035f611b97565b5b50505050565b5f73ffffffffffffffffffffffffffffffffffffffff168373ffffffffffffffffffffffffffffffffffffffff16036117e1575f6040517f96c6fd1e0000000000000000000000000000000000000000000000000000000081526004016117d891906129b0565b60405180910390fd5b5f73ffffffffffffffffffffffffffffffffffffffff168273ffffffffffffffffffffffffffffffffffffffff1603611851575f6040517fec442f0500000000000000000000000000000000000000000000000000000000815260040161184891906129b0565b60405180910390fd5b61185c838383611d66565b505050565b6118728161186d6116c5565b612055565b50565b5f61188083836112ea565b61195557600160055f8581526020019081526020015f205f015f8473ffffffffffffffffffffffffffffffffffffffff1673ffffffffffffffffffffffffffffffffffffffff1681526020019081526020015f205f6101000a81548160ff0219169083151502179055506118f26116c5565b73ffffffffffffffffffffffffffffffffffffffff168273ffffffffffffffffffffffffffffffffffffffff16847f2f8788117e7eff1d82e926ec794901d17c78024a50270940304540a733656f0d60405160405180910390a460019050611959565b5f90505b92915050565b60026006540361199b576040517f3ee5aeb500000000000000000000000000000000000000000000000000000000815260040160405180910390fd5b6002600681905550565b5f73ffffffffffffffffffffffffffffffffffffffff168273ffffffffffffffffffffffffffffffffffffffff1603611a15575f6040517fec442f05000000000000000000000000000000000000000000000000000000008152600401611a0c91906129b0565b60405180910390fd5b611a205f8383611d66565b5050565b6001600681905550565b5f611a3983836112ea565b15611b0e575f60055f8581526020019081526020015f205f015f8473ffffffffffffffffffffffffffffffffffffffff1673ffffffffffffffffffffffffffffffffffffffff1681526020019081526020015f205f6101000a81548160ff021916908315150217905550611aab6116c5565b73ffffffffffffffffffffffffffffffffffffffff168273ffffffffffffffffffffffffffffffffffffffff16847ff6391f5c32d9c69d2a47ea670b442974b53935d1edc7fd64eb21e047a839171b60405160405180910390a460019050611b12565b5f90505b92915050565b5f73ffffffffffffffffffffffffffffffffffffffff168273ffffffffffffffffffffffffffffffffffffffff1603611b88575f6040517f96c6fd1e000000000000000000000000000000000000000000000000000000008152600401611b7f91906129b0565b60405180910390fd5b611b93825f83611d66565b5050565b5f73ffffffffffffffffffffffffffffffffffffffff168473ffffffffffffffffffffffffffffffffffffffff1603611c07575f6040517fe602df05000000000000000000000000000000000000000000000000000000008152600401611bfe91906129b0565b60405180910390fd5b5f73ffffffffffffffffffffffffffffffffffffffff168373ffffffffffffffffffffffffffffffffffffffff1603611c77575f6040517f94280d62000000000000000000000000000000000000000000000000000000008152600401611c6e91906129b0565b60405180910390fd5b8160015f8673ffffffffffffffffffffffffffffffffffffffff1673ffffffffffffffffffffffffffffffffffffffff1681526020019081526020015f205f8573ffffffffffffffffffffffffffffffffffffffff1673ffffffffffffffffffffffffffffffffffffffff1681526020019081526020015f20819055508015611d60578273ffffffffffffffffffffffffffffffffffffffff168473ffffffffffffffffffffffffffffffffffffffff167f8c5be1e5ebec7d5bd14f71427d1e84f3dd0314c0f7b2291e5b200ac8c7c3b92584604051611d57919061239b565b60405180910390a35b50505050565b5f5f73ffffffffffffffffffffffffffffffffffffffff168473ffffffffffffffffffffffffffffffffffffffff161490505f5f73ffffffffffffffffffffffffffffffffffffffff168473ffffffffffffffffffffffffffffffffffffffff161490505f600b5f9054906101000a900473ffffffffffffffffffffffffffffffffffffffff1673ffffffffffffffffffffffffffffffffffffffff168573ffffffffffffffffffffffffffffffffffffffff16148015611e4d5750611e4c7fd8c0b0264fb5d225f4ba2fb92454d9f4f912be4d27b355562e6ae90ce2f5e74b336112ea565b5b90508280611e585750815b80611e605750805b15611ee057611e708686866120a6565b8473ffffffffffffffffffffffffffffffffffffffff168673ffffffffffffffffffffffffffffffffffffffff167feb8ee255fb90291f9b6fd125180931dd6803b35c512e464c91e27f138783d290866001604051611ed0929190612eb8565b60405180910390a3505050612050565b5f611eea866112a5565b90505f5f600b5f9054906101000a900473ffffffffffffffffffffffffffffffffffffffff1673ffffffffffffffffffffffffffffffffffffffff16639227b8d88a8a8a876040518563ffffffff1660e01b8152600401611f4e9493929190612edf565b5f60405180830381865afa158015611f68573d5f5f3e3d5ffd5b505050506040513d5f823e3d601f19601f82011682018060405250810190611f909190612f90565b9150915081611fd657806040517f08c379a0000000000000000000000000000000000000000000000000000000008152600401611fcd9190612424565b60405180910390fd5b611fe18989896120a6565b8773ffffffffffffffffffffffffffffffffffffffff168973ffffffffffffffffffffffffffffffffffffffff167feb8ee255fb90291f9b6fd125180931dd6803b35c512e464c91e27f138783d290896001604051612041929190612eb8565b60405180910390a35050505050505b505050565b61205f82826112ea565b6120a25780826040517fe2517d3f000000000000000000000000000000000000000000000000000000008152600401612099929190612fea565b60405180910390fd5b5050565b5f73ffffffffffffffffffffffffffffffffffffffff168373ffffffffffffffffffffffffffffffffffffffff16036120f6578060025f8282546120ea9190612b28565b925050819055506121c4565b5f5f5f8573ffffffffffffffffffffffffffffffffffffffff1673ffffffffffffffffffffffffffffffffffffffff1681526020019081526020015f205490508181101561217f578381836040517fe450d38c00000000000000000000000000000000000000000000000000000000815260040161217693929190612e83565b60405180910390fd5b8181035f5f8673ffffffffffffffffffffffffffffffffffffffff1673ffffffffffffffffffffffffffffffffffffffff1681526020019081526020015f2081905550505b5f73ffffffffffffffffffffffffffffffffffffffff168273ffffffffffffffffffffffffffffffffffffffff160361220b578060025f8282540392505081905550612255565b805f5f8473ffffffffffffffffffffffffffffffffffffffff1673ffffffffffffffffffffffffffffffffffffffff1681526020019081526020015f205f82825401925050819055505b8173ffffffffffffffffffffffffffffffffffffffff168373ffffffffffffffffffffffffffffffffffffffff167fddf252ad1be2c89b69c2b068fc378daa952ba7f163c4a11628f55a4df523b3ef836040516122b2919061239b565b60405180910390a3505050565b5f604051905090565b5f5ffd5b5f5ffd5b5f7fffffffff0000000000000000000000000000000000000000000000000000000082169050919050565b612304816122d0565b811461230e575f5ffd5b50565b5f8135905061231f816122fb565b92915050565b5f6020828403121561233a576123396122c8565b5b5f61234784828501612311565b91505092915050565b5f8115159050919050565b61236481612350565b82525050565b5f60208201905061237d5f83018461235b565b92915050565b5f819050919050565b61239581612383565b82525050565b5f6020820190506123ae5f83018461238c565b92915050565b5f81519050919050565b5f82825260208201905092915050565b8281835e5f83830152505050565b5f601f19601f8301169050919050565b5f6123f6826123b4565b61240081856123be565b93506124108185602086016123ce565b612419816123dc565b840191505092915050565b5f6020820190508181035f83015261243c81846123ec565b905092915050565b5f73ffffffffffffffffffffffffffffffffffffffff82169050919050565b5f61246d82612444565b9050919050565b61247d81612463565b8114612487575f5ffd5b50565b5f8135905061249881612474565b92915050565b6124a781612383565b81146124b1575f5ffd5b50565b5f813590506124c28161249e565b92915050565b5f5f604083850312156124de576124dd6122c8565b5b5f6124eb8582860161248a565b92505060206124fc858286016124b4565b9150509250929050565b5f819050919050565b61251881612506565b82525050565b5f6020820190506125315f83018461250f565b92915050565b5f5f5f6060848603121561254e5761254d6122c8565b5b5f61255b8682870161248a565b935050602061256c8682870161248a565b925050604061257d868287016124b4565b9150509250925092565b61259081612506565b811461259a575f5ffd5b50565b5f813590506125ab81612587565b92915050565b5f602082840312156125c6576125c56122c8565b5b5f6125d38482850161259d565b91505092915050565b5f5f604083850312156125f2576125f16122c8565b5b5f6125ff8582860161259d565b92505060206126108582860161248a565b9150509250929050565b5f60ff82169050919050565b61262f8161261a565b82525050565b5f6020820190506126485f830184612626565b92915050565b5f6080820190508181035f83015261266681876123ec565b9050818103602083015261267a81866123ec565b9050612689604083018561238c565b612696606083018461238c565b95945050505050565b5f602082840312156126b4576126b36122c8565b5b5f6126c18482850161248a565b91505092915050565b5f5ffd5b5f5ffd5b7f4e487b71000000000000000000000000000000000000000000000000000000005f52604160045260245ffd5b612708826123dc565b810181811067ffffffffffffffff82111715612727576127266126d2565b5b80604052505050565b5f6127396122bf565b905061274582826126ff565b919050565b5f67ffffffffffffffff821115612764576127636126d2565b5b61276d826123dc565b9050602081019050919050565b828183375f83830152505050565b5f61279a6127958461274a565b612730565b9050828152602081018484840111156127b6576127b56126ce565b5b6127c184828561277a565b509392505050565b5f82601f8301126127dd576127dc6126ca565b5b81356127ed848260208601612788565b91505092915050565b5f5f5f5f6080858703121561280e5761280d6122c8565b5b5f85013567ffffffffffffffff81111561282b5761282a6122cc565b5b612837878288016127c9565b945050602085013567ffffffffffffffff811115612858576128576122cc565b5b612864878288016127c9565b9350506040612875878288016124b4565b9250506060612886878288016124b4565b91505092959194509250565b5f5f604083850312156128a8576128a76122c8565b5b5f6128b58582860161248a565b92505060206128c68582860161248a565b9150509250929050565b5f819050919050565b5f6128f36128ee6128e984612444565b6128d0565b612444565b9050919050565b5f612904826128d9565b9050919050565b5f612915826128fa565b9050919050565b6129258161290b565b82525050565b5f60208201905061293e5f83018461291c565b92915050565b7f4e487b71000000000000000000000000000000000000000000000000000000005f52602260045260245ffd5b5f600282049050600182168061298857607f821691505b60208210810361299b5761299a612944565b5b50919050565b6129aa81612463565b82525050565b5f6020820190506129c35f8301846129a1565b92915050565b6129d281612350565b81146129dc575f5ffd5b50565b5f815190506129ed816129c9565b92915050565b5f60208284031215612a0857612a076122c8565b5b5f612a15848285016129df565b91505092915050565b7f4e487b71000000000000000000000000000000000000000000000000000000005f52601260045260245ffd5b7f4e487b71000000000000000000000000000000000000000000000000000000005f52601160045260245ffd5b5f612a8282612383565b9150612a8d83612383565b925082612a9d57612a9c612a1e565b5b828204905092915050565b5f612ab282612383565b9150612abd83612383565b9250828202612acb81612383565b91508282048414831517612ae257612ae1612a4b565b5b5092915050565b5f81519050612af78161249e565b92915050565b5f60208284031215612b1257612b116122c8565b5b5f612b1f84828501612ae9565b91505092915050565b5f612b3282612383565b9150612b3d83612383565b9250828201905080821115612b5557612b54612a4b565b5b92915050565b5f604082019050612b6e5f83018561238c565b612b7b602083018461238c565b9392505050565b5f612b8c82612383565b9150612b9783612383565b9250828203905081811115612baf57612bae612a4b565b5b92915050565b5f81905092915050565b50565b5f612bcd5f83612bb5565b9150612bd882612bbf565b5f82019050919050565b5f612bec82612bc2565b9150819050919050565b5f604082019050612c095f8301856129a1565b612c16602083018461238c565b9392505050565b5f819050815f5260205f209050919050565b5f6020601f8301049050919050565b5f82821b905092915050565b5f60088302612c797fffffffffffffffffffffffffffffffffffffffffffffffffffffffffffffffff82612c3e565b612c838683612c3e565b95508019841693508086168417925050509392505050565b5f612cb5612cb0612cab84612383565b6128d0565b612383565b9050919050565b5f819050919050565b612cce83612c9b565b612ce2612cda82612cbc565b848454612c4a565b825550505050565b5f5f905090565b612cf9612cea565b612d04818484612cc5565b505050565b5b81811015612d2757612d1c5f82612cf1565b600181019050612d0a565b5050565b601f821115612d6c57612d3d81612c1d565b612d4684612c2f565b81016020851015612d55578190505b612d69612d6185612c2f565b830182612d09565b50505b505050565b5f82821c905092915050565b5f612d8c5f1984600802612d71565b1980831691505092915050565b5f612da48383612d7d565b9150826002028217905092915050565b612dbd826123b4565b67ffffffffffffffff811115612dd657612dd56126d2565b5b612de08254612971565b612deb828285612d2b565b5f60209050601f831160018114612e1c575f8415612e0a578287015190505b612e148582612d99565b865550612e7b565b601f198416612e2a86612c1d565b5f5b82811015612e5157848901518255600182019150602085019450602081019050612e2c565b86831015612e6e5784890151612e6a601f891682612d7d565b8355505b6001600288020188555050505b505050505050565b5f606082019050612e965f8301866129a1565b612ea3602083018561238c565b612eb0604083018461238c565b949350505050565b5f604082019050612ecb5f83018561238c565b612ed8602083018461235b565b9392505050565b5f608082019050612ef25f8301876129a1565b612eff60208301866129a1565b612f0c604083018561238c565b612f19606083018461238c565b95945050505050565b5f612f34612f2f8461274a565b612730565b905082815260208101848484011115612f5057612f4f6126ce565b5b612f5b8482856123ce565b509392505050565b5f82601f830112612f7757612f766126ca565b5b8151612f87848260208601612f22565b91505092915050565b5f5f60408385031215612fa657612fa56122c8565b5b5f612fb3858286016129df565b925050602083015167ffffffffffffffff811115612fd457612fd36122cc565b5b612fe085828601612f63565b9150509250929050565b5f604082019050612ffd5f8301856129a1565b61300a602083018461250f565b939250505056fea2646970667358221220864d4251b048796d960e8f6b5509da5bf175238badafa04fa0d761cf4c688b6364736f6c634300081e0033","linkReferences":{}},"methodIdentifiers":{"DEFAULT_ADMIN_ROLE()":"a217fddf","HARD_CAP()":"3a03171c","SERVICE_PROVIDER_ROLE()":"1bc6ae8a","TOKEN_PRICE_WEI()":"0499ed13","allowance(address,address)":"dd62ed3e","approve(address,uint256)":"095ea7b3","balanceOf(address)":"70a08231","burn(address,uint256)":"9dc29fac","clawbackTokens(address,uint256)":"62f957fa","complianceManager()":"ff7bce23","decimals()":"313ce567","getPropertyInfo()":"5de5f3be","getRoleAdmin(bytes32)":"248a9ca3","getTotalRaised()":"9f550293","grantRole(bytes32,address)":"2f2ff15d","hasRole(bytes32,address)":"91d14854","isOversubscribed()":"c0a05ad5","mint(address,uint256)":"40c10f19","name()":"06fdde03","propertyLocation()":"b5d2de5c","propertyName()":"2c35c08c","propertyTotalValue()":"d6b20c9f","purchaseTokens()":"3290ce29","renounceRole(bytes32,address)":"36568abe","revokeRole(bytes32,address)":"d547741f","setPropertyInfo(string,string,uint256,uint256)":"b38091f8","supportsInterface(bytes4)":"01ffc9a7","symbol()":"95d89b41","tokenPriceWei()":"05d0f15b","totalRaised()":"c5c4744c","totalSupply()":"18160ddd","transfer(address,uint256)":"a9059cbb","transferFrom(address,address,uint256)":"23b872dd","withdraw()":"3ccfd60b"},"id":32}